:020000040000FA
:10000000830100308A0004288701003086008800C0
:1000100003138316873081006400A030870000300E
:10002000860000308800383085008312FB201820BD
:100030008C1A1B28080003118C1A09210310673041
:100040002C060319BF2144302C060319212133301B
:100050002C0603196E2022302C06031937201B288A
:1000600081016400F4300102031D31280800DD2005
:100070001820640083160030860000308800831248
:1000800003130310FF3086008800FF30A500A40092
:10009000003084006400A40DA50DFF3086008800A8
:1000A0001F30870024088600250888003020840A35
:1000B0000408103A031D4A28A50D382864000330AF
:1000C000A60081016400FF300102031D6228682838
:1000D000810103116400A60B62280800DD201820AE
:1000E000FF30860088000130A300870000308600C2
:1000F00088000030840064005E2003100030870018
:10010000A30D23088700840A0408053A031D7B28F1
:10011000A30D6F2809212C08AB00080009212C0829
:100120002C172C08AA00A5200800031383128801AD
:10013000860007159E2007119E200800810164009B
:1001400015300102031D9F280800031440302A02C5
:10015000031CB028AB2860302A020318B02808001E
:100160000710013095206400383095200630952026
:100170000C30952007144530952052309520523090
:1001800095204F3095205230952000308600003069
:1001900087006400CD205B211B2864003D30A8004F
:1001A00081016400FF300102031DD128D72881019D
:1001B00003116400A80BD12808008714E9208710D8
:1001C000E9208714E9208710E9208714E9208710A7
:1001D000080064000B30A9009021840181016400B3
:1001E000FF300102031DEF28F5288101031164008F
:1001F000A90BEF2808008316031387170717181594
:10020000193099001812181383121813981718161A
:100210000800831264008C1E0A29981814291819E2
:1002200015291A08AC000800582A582A0800831615
:1002300003139816831299008316981C1D2998128F
:100240000800DD2007100130952002309520640061
:1002500038309520063095200C309520071440301A
:1002600084000311860164009E208C1E33298A209D
:1002700064009E208C1E38298E202A0884002B08BA
:1002800080004030840000089520840A0408503A19
:10029000031955210408603A031D432903118601FF
:1002A0008801870164009E20080064000710C030A8
:1002B0009520071408000710013095200230952082
:1002C000640038309520063095200C3095200714B6
:1002D0004030840003114030840000089520840AD7
:1002E0000408503A031980210408603A031D6D295F
:1002F000031186018801870164009E20582A0800A6
:1003000064000710C03095200714080040308400B6
:1003100004088000840A0408603A031D8829080044
:1003200000308400831603130030860000308800FC
:10033000831203130310FF308800080C88002C0878
:10034000AF00A115AF0CA20DA10BA2290809A205AF
:1003500022060319B529B229840A0408083A031DA4
:100360009D2908003F308600B82906308600B8294C
:10037000810164003A300102031DB929AC29DD2056
:1003800086018801031383160430890080309F00A2
:10039000831278309F0018201F1403138316043033
:1003A000890080309F0083120530F9211F151F1925
:1003B000D7291E08172183161E081721831203133D
:1003C000002200301721E521CB29831203130311EA
:1003D00064001030B10081016400FF300102031D90
:1003E000EC29F229810103116400B10BEC2908000A
:1003F000CB2903138312B0006400B00BFC29080062
:10040000031383163830850007309F0083120313CF
:100410000311B201FF30B30005148510051132300D
:10042000F921000005083839FF300319202AFA3075
:10043000F921FF3085190130051A0430851A07307B
:10044000B306031DE2290311FF30B3000510851424
:1004500005113230F921000005083839FF30031941
:100460003A2AFA30F921FF3085190230051A053091
:10047000851A0830B306031DE2290311FF30B300CB
:100480000510851005153230F921000005083839AE
:10049000FF300319542AFA30F921FF30851903304F
:1004A000051A0630851A0930B306031DE229080033
:0404B00000340034E0
:00000001FF
