:020000040000FA
:10000000830100308A0004288701003086008800C0
:1000100003138316873081006400A030870000300E
:10002000860000308800383085008312CB201A20EB
:10003000D920292840308400640020308000840AC0
:100040000408603A031D1C28080064008C1A292843
:100050000800640003118C1AD920031067302C06A5
:100060000319BC2144302C060319F12033302C062F
:1000700003197D2022302C060319462029288101EE
:100080006400F4300102031D40280800BF20252031
:10009000640083160030860000308800831203134A
:1000A0000310FF3086008800FF30A500A400003058
:1000B00084006400A40DA50DFF30860088001F3069
:1000C000870024088600250888003F20840A040849
:1000D000103A031D5928A50D472864000330A600D7
:1000E00081016400FF300102031D7128772881011E
:1000F00003116400A60B71280800BF202520FF30E3
:10010000860088000130A300870000308600880048
:100110000030840064006D20031000308700A30DC0
:1001200023088700840A0408053A031D8A28A30DC2
:100130007E28D9202C08AB000800D9202C082C17C9
:100140002C08AA00B420080003138312880186003B
:100150000715AD200711AD2008008101640025308E
:100160000102031DAE280800031440302A02031CBC
:100170005729BA2860302A02031857290800871423
:100180008421871084218714842187108421871477
:100190008421871008008316031387170717181583
:1001A000193099001812181383121813981718167B
:1001B0000800831264008C1EDA289818E4281819A5
:1001C000E5281A08AC000800552A552A08008316AD
:1001D00003139816831299008316981CED28981221
:1001E0000800BF2007100130A4200230A4206400C2
:1001F0003830A4200630A4200C30A420071440304E
:100200008400031186016400AD208C1E032999200F
:100210006400AD208C1E08299D202A0884002B082C
:100220008000403084000008A420840A0408503A6A
:10023000031926210408603A031D132903118601BE
:10024000880187016400AD20AC010800640007103C
:10025000C030A4200714080007100130A420023089
:10026000A42064003830A4200630A4200C30A42040
:100270000714403084000311403084000008A4209B
:10028000840A0408503A031951210408603A031DF6
:100290003E2903118601880187016400AD20AC016D
:1002A000292864000710C030A42007140800071094
:1002B0000130A42064003830A4200630A4200C3083
:1002C000A42007144530A4205230A4205230A4208A
:1002D0004F30A4205230A420003086000030870028
:1002E000640074212C29292864003D30A800810174
:1002F0006400FF300102031D78297E29810103116A
:100300006400A80B78290800031383121630A90093
:1003100064008D21A90B8829080000308400831611
:10032000031300308600003088008312031303108B
:10033000FF308800080C88002C08AF00A115AF0C16
:10034000A20DA10B9F290809A20522060319B229B3
:10035000AF29840A0408083A031D9A2908003F308F
:100360008600B52906308600B529810164000A306F
:100370000102031DB629A929BF20860188010313A4
:1003800083160430890080309F00831278309F00EC
:1003900025201F14031383160430890080309F002A
:1003A00083120530F6211F151F19D4291E08E720D6
:1003B00083161E08E72083120313FD210030E72077
:1003C000E221C82983120313031164001030B10025
:1003D00081016400FF300102031DE929EF29810139
:1003E00003116400B10BE9290800C8290313831223
:1003F000B0006400B00BF9290800031383163830ED
:10040000850007309F00831203130311B201FF30F0
:10041000B3000514851005113230F62100000508DF
:100420003839FF3003191D2AFA30F621FF308519BB
:100430000130051A0430851A0730B306031DDF2981
:100440000311FF30B3000510851405113230F62179
:10045000000005083839FF300319372AFA30F62131
:10046000FF3085190230051A0530851A0830B306A9
:10047000031DDF290311FF30B3000510851005159A
:100480003230F621000005083839FF300319512AAF
:10049000FA30F621FF3085190330051A0630851A27
:0A04A0000930B306031DDF29080030
:0404AA0000340034E6
:00000001FF
